{"abi":[{"type":"constructor","inputs":[{"name":"poolManager_","type":"address","internalType":"contract IPoolManager"},{"name":"launchpad_","type":"address","internalType":"contract ILaunchpadSnipe"},{"name":"usdc_","type":"address","internalType":"Currency"}],"stateMutability":"nonpayable"},{"type":"function","name":"LAUNCHPAD","inputs":[],"outputs":[{"name":"","type":"address","internalType":"contract ILaunchpadSnipe"}],"stateMutability":"view"},{"type":"function","name":"POOL_MANAGER","inputs":[],"outputs":[{"name":"","type":"address","internalType":"contract IPoolManager"}],"stateMutability":"view"},{"type":"function","name":"USDC","inputs":[],"outputs":[{"name":"","type":"address","internalType":"Currency"}],"stateMutability":"view"},{"type":"function","name":"afterSwap","inputs":[{"name":"","type":"address","internalType":"address"},{"name":"key","type":"tuple","internalType":"struct PoolKey","components":[{"name":"currency0","type":"address","internalType":"Currency"},{"name":"currency1","type":"address","internalType":"Currency"},{"name":"fee","type":"uint24","internalType":"uint24"},{"name":"tickSpacing","type":"int24","internalType":"int24"},{"name":"hooks","type":"address","internalType":"address"}]},{"name":"params","type":"tuple","internalType":"struct SwapParams","components":[{"name":"zeroForOne","type":"bool","internalType":"bool"},{"name":"amountSpecified","type":"int256","internalType":"int256"},{"name":"sqrtPriceLimitX96","type":"uint160","internalType":"uint160"}]},{"name":"delta","type":"int256","internalType":"BalanceDelta"},{"name":"","type":"bytes","internalType":"bytes"}],"outputs":[{"name":"","type":"bytes4","internalType":"bytes4"},{"name":"","type":"int128","internalType":"int128"}],"stateMutability":"nonpayable"},{"type":"function","name":"beforeSwap","inputs":[{"name":"","type":"address","internalType":"address"},{"name":"key","type":"tuple","internalType":"struct PoolKey","components":[{"name":"currency0","type":"address","internalType":"Currency"},{"name":"currency1","type":"address","internalType":"Currency"},{"name":"fee","type":"uint24","internalType":"uint24"},{"name":"tickSpacing","type":"int24","internalType":"int24"},{"name":"hooks","type":"address","internalType":"address"}]},{"name":"params","type":"tuple","internalType":"struct SwapParams","components":[{"name":"zeroForOne","type":"bool","internalType":"bool"},{"name":"amountSpecified","type":"int256","internalType":"int256"},{"name":"sqrtPriceLimitX96","type":"uint160","internalType":"uint160"}]},{"name":"","type":"bytes","internalType":"bytes"}],"outputs":[{"name":"","type":"bytes4","internalType":"bytes4"},{"name":"","type":"int256","internalType":"BeforeSwapDelta"},{"name":"","type":"uint24","internalType":"uint24"}],"stateMutability":"nonpayable"},{"type":"function","name":"getHookPermissions","inputs":[],"outputs":[{"name":"","type":"uint160","internalType":"uint160"}],"stateMutability":"pure"},{"type":"event","name":"SniperSkimmed","inputs":[{"name":"token","type":"address","indexed":true,"internalType":"address"},{"name":"treasury","type":"address","indexed":true,"internalType":"address"},{"name":"amountIn","type":"uint256","indexed":false,"internalType":"uint256"},{"name":"skimAmount","type":"uint256","indexed":false,"internalType":"uint256"},{"name":"bpsApplied","type":"uint256","indexed":false,"internalType":"uint256"}],"anonymous":false},{"type":"error","name":"InvalidLaunchpad","inputs":[]},{"type":"error","name":"NotPoolManager","inputs":[]}],"bytecode":{"object":"0x60e03461010457601f610b5138819003918201601f19168301916001600160401b03831184841017610108578084926060946040528339810103126101045780516001600160a01b03811681036101045760208201516001600160a01b038116929091908383036101045760400151926001600160a01b038416840361010457156100f55760805260a05260c052604051610a34908161011d823960805181818160d5015281816101930152818161021a01528181610445015261077e015260a051818181610288015281816103b50152610691015260c05181818161014f0152818161048c015281816106ec01526109300152f35b6345c78f6360e11b5f5260045ffd5b5f80fd5b634e487b7160e01b5f52604160045260245ffdfe6080806040526004361015610012575f80fd5b5f3560e01c90816351431d4f1461027657508063575e24b4146101c257806362308e851461017e57806389a302711461013a578063b47b2fb11461007d5763c4e833ce1461005e575f80fd5b34610079575f36600319011261007957602060405160c08152f35b5f80fd5b3461007957610160366003190112610079576100976102b7565b5060a03660231901126100795760603660c3190112610079576101443567ffffffffffffffff8111610079576100d19036906004016102cd565b50507f00000000000000000000000000000000000000000000000000000000000000006001600160a01b0316330361012b57604061011161012435610647565b82516001600160e01b03199092168252600f0b6020820152f35b63570c108560e11b5f5260045ffd5b34610079575f366003190112610079576040517f00000000000000000000000000000000000000000000000000000000000000006001600160a01b03168152602090f35b34610079575f366003190112610079576040517f00000000000000000000000000000000000000000000000000000000000000006001600160a01b03168152602090f35b3461007957610140366003190112610079576101dc6102b7565b5060a03660231901126100795760603660c3190112610079576101243567ffffffffffffffff8111610079576102169036906004016102cd565b50507f00000000000000000000000000000000000000000000000000000000000000006001600160a01b0316330361012b57606062ffffff610256610377565b906040939293519363ffffffff60e01b1684526020840152166040820152f35b34610079575f366003190112610079577f00000000000000000000000000000000000000000000000000000000000000006001600160a01b03168152602090f35b600435906001600160a01b038216820361007957565b9181601f840112156100795782359167ffffffffffffffff8311610079576020838186019501011161007957565b90601f8019910116810190811067ffffffffffffffff82111761031d57604052565b634e487b7160e01b5f52604160045260245ffd5b8181029291811591840414171561034457565b634e487b7160e01b5f52601160045260245ffd5b9081602091031261007957516001600160a01b03811681036100795790565b60c43580151581036100795761038e906024610911565b9015610623576040516307c8ed4f60e01b81526001600160a01b03918216600482018190527f0000000000000000000000000000000000000000000000000000000000000000909216925f92909190602082602481885afa918215610576575f926105ef575b5081156105db5760e435915f8313156105c6576127106104148285610331565b049586156105b0576020600491604051928380926361d027b360e01b82525afa908115610576575f91610581575b507f00000000000000000000000000000000000000000000000000000000000000006001600160a01b031691823b1561007957604051630b0d9c0960e01b81526001600160a01b037f0000000000000000000000000000000000000000000000000000000000000000811660048301528316602482015260448101899052925f908490606490829084905af1928315610576578893610538575b50604080519586526020860193909352918401919091526001600160a01b0316917fc06f0e7cecf9b35fa06a40852c80ffe1088aa568676a1065b554c8e8564116d29080606081015b0390a36315d7892d60e21b9260801b9190565b7fc06f0e7cecf9b35fa06a40852c80ffe1088aa568676a1065b554c8e8564116d293929197505f610568916102fb565b6105255f97919293506104dc565b6040513d5f823e3d90fd5b6105a3915060203d6020116105a9575b61059b81836102fb565b810190610358565b5f610442565b503d610591565b506315d7892d60e21b95505f9450849392505050565b506315d7892d60e21b94505f93508392915050565b506315d7892d60e21b93505f925082919050565b9091506020813d60201161061b575b8161060b602093836102fb565b810103126100795751905f6103f4565b3d91506105fe565b506315d7892d60e21b905f908190565b356001600160a01b03811681036100795790565b905f60e43513156109035760c435801515810361007957610669906024610911565b9290156108f4576040516307c8ed4f60e01b81526001600160a01b03938416600482018190527f00000000000000000000000000000000000000000000000000000000000000009094169390602081602481885afa908115610576575f916108c2575b5080156108b0576024356001600160a01b038116939084810361007957507f0000000000000000000000000000000000000000000000000000000000000000936001600160a01b038516036108a85760801d600f0b5b5f81600f0b1315610895576fffffffffffffffffffffffffffffffff169261271061074d8386610331565b04958615610881576020600491604051928380926361d027b360e01b82525afa908115610576575f91610862575b507f00000000000000000000000000000000000000000000000000000000000000006001600160a01b0316803b1561007957604051630b0d9c0960e01b81526001600160a01b0393841660048201529282166024840152604483018890525f908390606490829084905af18015610576577fc06f0e7cecf9b35fa06a40852c80ffe1088aa568676a1065b554c8e8564116d293889361084092610852575b5060405193849360018060a01b031697846040919493926060820195825260208201520152565b0390a363b47b2fb160e01b91600f0b90565b5f61085c916102fb565b5f610819565b61087b915060203d6020116105a95761059b81836102fb565b5f61077b565b5063b47b2fb160e01b95505f949350505050565b5063b47b2fb160e01b94505f9392505050565b600f0b610722565b5063b47b2fb160e01b93505f92915050565b90506020813d6020116108ec575b816108dd602093836102fb565b8101031261007957515f6106cc565b3d91506108d0565b5063b47b2fb160e01b91505f90565b63b47b2fb160e01b91505f90565b9091906001600160a01b0361092582610633565b166001600160a01b037f0000000000000000000000000000000000000000000000000000000000000000811691821494602084019392909161096685610633565b1614908515806109f6575b6109ea57908591826109e2575b82156109c8575b5050156109be57600193156109ab57506001600160a01b03906109a790610633565b1690565b6001600160a01b0391506109a790610633565b505090505f905f90565b909150816109d9575b505f80610985565b9050155f6109d1565b91508161097e565b5050505090505f905f90565b50811561097156fea2646970667358221220049469d4558adaef77ee28eedbf61874e1ddce7eace0534482bcf0f53d8019c664736f6c634300081a0033","linkReferences":{}},"methodIdentifiers":{"LAUNCHPAD()":"51431d4f","POOL_MANAGER()":"62308e85","USDC()":"89a30271","afterSwap(address,(address,address,uint24,int24,address),(bool,int256,uint160),int256,bytes)":"b47b2fb1","beforeSwap(address,(address,address,uint24,int24,address),(bool,int256,uint160),bytes)":"575e24b4","getHookPermissions()":"c4e833ce"},"id":19}